:030000000200807B
:09000B00758CE3758AFCD2D53234
:1000800075753675741A757316757C0012011AC26F
:10009000967F0179769001B07E007D04758CE375C2
:1000A0008AFC75A800758970D28CD2A9D2AF30D5E0
:1000B000FDC2D57838E709D296F27830EFF2C296D1
:1000C000A2B55002427C23FF30E7227F017976E51A
:1000D0007CB57D0DB57E0AB57F02800560031201F7
:1000E00048857E7F857D7E857C7D757C00DEBFDDDD
:1000F000BD7E007D040575E575B43C17757500057A
:1001000074E574B43C0D7574000573E573B418039D
:1001100075730012011AB29780949001B0E575755D
:10012000F00A8493F577E5F093F576E57475F00AB7
:100130008493F579E5F093F578E57375F00A849387
:10014000F57BE5F093F57A22B4220CAC73BC17056D
:1001500075730080020573B4210CAC73BC00057587
:10016000731780021573B4120CAC74BC3B05757424
:100170000080020574B4110CAC74BC000575743BAE
:1001800080021574B4060CAC75BC3B057575008017
:10019000020575B4050CAC75BC000575753B800295
:1001A0001575B408077575007E007D0412011A22CA
:0C01B0003F065B4F666D7D077F6F777C1C
:00000001FF
